{
  "contractName": "SRTDocument",
  "abi": [
    {
      "inputs": [
        {
          "internalType": "string",
          "name": "",
          "type": "string"
        }
      ],
      "name": "docMap",
      "outputs": [
        {
          "internalType": "string",
          "name": "docId",
          "type": "string"
        },
        {
          "internalType": "bytes32",
          "name": "docSig",
          "type": "bytes32"
        },
        {
          "internalType": "uint256",
          "name": "updated_time",
          "type": "uint256"
        }
      ],
      "stateMutability": "view",
      "type": "function"
    },
    {
      "inputs": [
        {
          "internalType": "string",
          "name": "docId",
          "type": "string"
        },
        {
          "internalType": "string",
          "name": "_message",
          "type": "string"
        }
      ],
      "name": "pushDocument",
      "outputs": [],
      "stateMutability": "nonpayable",
      "type": "function"
    },
    {
      "inputs": [
        {
          "internalType": "string",
          "name": "_docId",
          "type": "string"
        },
        {
          "internalType": "string",
          "name": "_message",
          "type": "string"
        }
      ],
      "name": "getMessageHash",
      "outputs": [
        {
          "internalType": "bytes32",
          "name": "",
          "type": "bytes32"
        }
      ],
      "stateMutability": "pure",
      "type": "function"
    },
    {
      "inputs": [
        {
          "internalType": "bytes32",
          "name": "_messageHash",
          "type": "bytes32"
        }
      ],
      "name": "getEthSignedMessageHash",
      "outputs": [
        {
          "internalType": "bytes32",
          "name": "",
          "type": "bytes32"
        }
      ],
      "stateMutability": "pure",
      "type": "function"
    },
    {
      "inputs": [
        {
          "internalType": "address",
          "name": "_signer",
          "type": "address"
        },
        {
          "internalType": "string",
          "name": "_docId",
          "type": "string"
        },
        {
          "internalType": "string",
          "name": "_message",
          "type": "string"
        },
        {
          "internalType": "bytes",
          "name": "signature",
          "type": "bytes"
        }
      ],
      "name": "verify",
      "outputs": [
        {
          "internalType": "bool",
          "name": "",
          "type": "bool"
        }
      ],
      "stateMutability": "pure",
      "type": "function"
    },
    {
      "inputs": [
        {
          "internalType": "bytes32",
          "name": "_ethSignedMessageHash",
          "type": "bytes32"
        },
        {
          "internalType": "bytes",
          "name": "_signature",
          "type": "bytes"
        }
      ],
      "name": "recoverSigner",
      "outputs": [
        {
          "internalType": "address",
          "name": "",
          "type": "address"
        }
      ],
      "stateMutability": "pure",
      "type": "function"
    },
    {
      "inputs": [
        {
          "internalType": "bytes",
          "name": "sig",
          "type": "bytes"
        }
      ],
      "name": "splitSignature",
      "outputs": [
        {
          "internalType": "bytes32",
          "name": "r",
          "type": "bytes32"
        },
        {
          "internalType": "bytes32",
          "name": "s",
          "type": "bytes32"
        },
        {
          "internalType": "uint8",
          "name": "v",
          "type": "uint8"
        }
      ],
      "stateMutability": "pure",
      "type": "function"
    }
  ],
  "bytecode": "0x608060405234801561001057600080fd5b50610e41806100206000396000f3fe608060405234801561001057600080fd5b506004361061007d5760003560e01c8063a7bb58031161005b578063a7bb580314610112578063c4b9067d14610144578063f3bc423014610160578063fa540801146101925761007d565b80634ce984171461008257806397aba7f9146100b2578063985b7faa146100e2575b600080fd5b61009c600480360381019061009791906106b0565b6101c2565b6040516100a99190610741565b60405180910390f35b6100cc60048036038101906100c79190610829565b6101f5565b6040516100d991906108c6565b60405180910390f35b6100fc60048036038101906100f7919061090d565b610264565b60405161010991906109e3565b60405180910390f35b61012c600480360381019061012791906109fe565b6102c4565b60405161013b93929190610a63565b60405180910390f35b61015e600480360381019061015991906106b0565b61032c565b005b61017a60048036038101906101759190610a9a565b6103bb565b60405161018993929190610b84565b60405180910390f35b6101ac60048036038101906101a79190610bc2565b610483565b6040516101b99190610741565b60405180910390f35b600082826040516020016101d7929190610c2b565b60405160208183030381529060405280519060200120905092915050565b600080600080610204856102c4565b9250925092506001868285856040516000815260200160405260405161022d9493929190610c4f565b6020604051602081039080840390855afa15801561024f573d6000803e3d6000fd5b50505060206040510351935050505092915050565b60008061027185856101c2565b9050600061027e82610483565b90508673ffffffffffffffffffffffffffffffffffffffff166102a182866101f5565b73ffffffffffffffffffffffffffffffffffffffff161492505050949350505050565b6000806000604184511461030d576040517f08c379a000000000000000000000000000000000000000000000000000000000815260040161030490610ce0565b60405180910390fd5b6020840151925060408401519150606084015160001a90509193909250565b8160008360405161033d9190610d00565b908152602001604051809103902060000190805190602001906103619291906104b3565b5061036c82826101c2565b60008360405161037c9190610d00565b908152602001604051809103902060010181905550426000836040516103a29190610d00565b9081526020016040518091039020600201819055505050565b6000818051602081018201805184825260208301602085012081835280955050505050506000915090508060000180546103f490610d46565b80601f016020809104026020016040519081016040528092919081815260200182805461042090610d46565b801561046d5780601f106104425761010080835404028352916020019161046d565b820191906000526020600020905b81548152906001019060200180831161045057829003601f168201915b5050505050908060010154908060020154905083565b6000816040516020016104969190610de5565b604051602081830303815290604052805190602001209050919050565b8280546104bf90610d46565b90600052602060002090601f0160209004810192826104e15760008555610528565b82601f106104fa57805160ff1916838001178555610528565b82800160010185558215610528579182015b8281111561052757825182559160200191906001019061050c565b5b5090506105359190610539565b5090565b5b8082111561055257600081600090555060010161053a565b5090565b6000604051905090565b600080fd5b600080fd5b600080fd5b600080fd5b6000601f19601f8301169050919050565b7f4e487b7100000000000000000000000000000000000000000000000000000000600052604160045260246000fd5b6105bd82610574565b810181811067ffffffffffffffff821117156105dc576105db610585565b5b80604052505050565b60006105ef610556565b90506105fb82826105b4565b919050565b600067ffffffffffffffff82111561061b5761061a610585565b5b61062482610574565b9050602081019050919050565b82818337600083830152505050565b600061065361064e84610600565b6105e5565b90508281526020810184848401111561066f5761066e61056f565b5b61067a848285610631565b509392505050565b600082601f8301126106975761069661056a565b5b81356106a7848260208601610640565b91505092915050565b600080604083850312156106c7576106c6610560565b5b600083013567ffffffffffffffff8111156106e5576106e4610565565b5b6106f185828601610682565b925050602083013567ffffffffffffffff81111561071257610711610565565b5b61071e85828601610682565b9150509250929050565b6000819050919050565b61073b81610728565b82525050565b60006020820190506107566000830184610732565b92915050565b61076581610728565b811461077057600080fd5b50565b6000813590506107828161075c565b92915050565b600067ffffffffffffffff8211156107a3576107a2610585565b5b6107ac82610574565b9050602081019050919050565b60006107cc6107c784610788565b6105e5565b9050828152602081018484840111156107e8576107e761056f565b5b6107f3848285610631565b509392505050565b600082601f8301126108105761080f61056a565b5b81356108208482602086016107b9565b91505092915050565b600080604083850312156108405761083f610560565b5b600061084e85828601610773565b925050602083013567ffffffffffffffff81111561086f5761086e610565565b5b61087b858286016107fb565b9150509250929050565b600073ffffffffffffffffffffffffffffffffffffffff82169050919050565b60006108b082610885565b9050919050565b6108c0816108a5565b82525050565b60006020820190506108db60008301846108b7565b92915050565b6108ea816108a5565b81146108f557600080fd5b50565b600081359050610907816108e1565b92915050565b6000806000806080858703121561092757610926610560565b5b6000610935878288016108f8565b945050602085013567ffffffffffffffff81111561095657610955610565565b5b61096287828801610682565b935050604085013567ffffffffffffffff81111561098357610982610565565b5b61098f87828801610682565b925050606085013567ffffffffffffffff8111156109b0576109af610565565b5b6109bc878288016107fb565b91505092959194509250565b60008115159050919050565b6109dd816109c8565b82525050565b60006020820190506109f860008301846109d4565b92915050565b600060208284031215610a1457610a13610560565b5b600082013567ffffffffffffffff811115610a3257610a31610565565b5b610a3e848285016107fb565b91505092915050565b600060ff82169050919050565b610a5d81610a47565b82525050565b6000606082019050610a786000830186610732565b610a856020830185610732565b610a926040830184610a54565b949350505050565b600060208284031215610ab057610aaf610560565b5b600082013567ffffffffffffffff811115610ace57610acd610565565b5b610ada84828501610682565b91505092915050565b600081519050919050565b600082825260208201905092915050565b60005b83811015610b1d578082015181840152602081019050610b02565b83811115610b2c576000848401525b50505050565b6000610b3d82610ae3565b610b478185610aee565b9350610b57818560208601610aff565b610b6081610574565b840191505092915050565b6000819050919050565b610b7e81610b6b565b82525050565b60006060820190508181036000830152610b9e8186610b32565b9050610bad6020830185610732565b610bba6040830184610b75565b949350505050565b600060208284031215610bd857610bd7610560565b5b6000610be684828501610773565b91505092915050565b600081905092915050565b6000610c0582610ae3565b610c0f8185610bef565b9350610c1f818560208601610aff565b80840191505092915050565b6000610c378285610bfa565b9150610c438284610bfa565b91508190509392505050565b6000608082019050610c646000830187610732565b610c716020830186610a54565b610c7e6040830185610732565b610c8b6060830184610732565b95945050505050565b7f696e76616c6964207369676e6174757265206c656e6774680000000000000000600082015250565b6000610cca601883610aee565b9150610cd582610c94565b602082019050919050565b60006020820190508181036000830152610cf981610cbd565b9050919050565b6000610d0c8284610bfa565b915081905092915050565b7f4e487b7100000000000000000000000000000000000000000000000000000000600052602260045260246000fd5b60006002820490506001821680610d5e57607f821691505b60208210811415610d7257610d71610d17565b5b50919050565b7f19457468657265756d205369676e6564204d6573736167653a0a333200000000600082015250565b6000610dae601c83610bef565b9150610db982610d78565b601c82019050919050565b6000819050919050565b610ddf610dda82610728565b610dc4565b82525050565b6000610df082610da1565b9150610dfc8284610dce565b6020820191508190509291505056fea2646970667358221220a916998af73e9451b224345977214ac94b0476c455c5be9ae0425471e5b963c364736f6c634300080b0033",
  "immutableReferences": {},
  "source": "pragma solidity ^0.8.0;\n\ncontract SRTDocument {\n\n    struct Document {\n        string  docId;\n        bytes32  docSig;\n        uint256 updated_time;\n    }\n\n    mapping(string => Document) public docMap;\n\n    function pushDocument(string memory docId, string memory _message) public {\n        docMap[docId].docId  = docId;\n        docMap[docId].docSig = getMessageHash(docId, _message);\n        docMap[docId].updated_time = block.timestamp;\n    }\n\n    function getMessageHash(\n        string memory _docId,\n        string memory _message\n    ) public pure returns (bytes32) {\n        return keccak256(abi.encodePacked(_docId, _message));\n    }\n\n    function getEthSignedMessageHash(bytes32 _messageHash)\n        public\n        pure\n        returns (bytes32)\n    {\n        /*\n        Signature is produced by signing a keccak256 hash with the following format:\n        \"\\x19Ethereum Signed Message\\n\" + len(msg) + msg\n        */\n        return\n            keccak256(\n                abi.encodePacked(\"\\x19Ethereum Signed Message:\\n32\", _messageHash)\n            );\n    }\n\n    function verify(\n        address _signer,\n        string memory _docId,\n        string memory _message,\n        bytes memory signature\n    ) public pure returns (bool) {\n        bytes32 messageHash = getMessageHash(_docId, _message);\n        bytes32 ethSignedMessageHash = getEthSignedMessageHash(messageHash);\n\n        return recoverSigner(ethSignedMessageHash, signature) == _signer;\n    }\n\n    function recoverSigner(bytes32 _ethSignedMessageHash, bytes memory _signature)\n        public\n        pure\n        returns (address)\n    {\n        (bytes32 r, bytes32 s, uint8 v) = splitSignature(_signature);\n\n        return ecrecover(_ethSignedMessageHash, v, r, s);\n    }\n\n\n    function splitSignature(bytes memory sig)\n        public\n        pure\n        returns (\n            bytes32 r,\n            bytes32 s,\n            uint8 v\n        )\n    {\n        require(sig.length == 65, \"invalid signature length\");\n\n        assembly {\n            /*\n            First 32 bytes stores the length of the signature\n\n            add(sig, 32) = pointer of sig + 32\n            effectively, skips first 32 bytes of signature\n\n            mload(p) loads next 32 bytes starting at the memory address p into memory\n            */\n\n            // first 32 bytes, after the length prefix\n            r := mload(add(sig, 32))\n            // second 32 bytes\n            s := mload(add(sig, 64))\n            // final byte (first byte of the next 32 bytes)\n            v := byte(0, mload(add(sig, 96)))\n        }\n\n        // implicitly return (r, s, v)\n    }\n}\n",
  "sourcePath": "/home/utcc/Documents/srt-blockchain/contracts/SRTDocument.sol",
  "compiler": {
    "name": "solc",
    "version": "0.8.11+commit.d7f03943.Emscripten.clang"
  },
  "schemaVersion": "3.4.5",
  "updatedAt": "2022-03-05T16:05:01.871Z",
  "devdoc": {
    "kind": "dev",
    "methods": {},
    "version": 1
  },
  "userdoc": {
    "kind": "user",
    "methods": {},
    "version": 1
  }
}